{
  "_format": "hh-sol-artifact-1",
  "contractName": "Token",
  "sourceName": "Contracts/token.sol",
  "abi": [
    {
      "inputs": [
        {
          "internalType": "uint256",
          "name": "_totalSupply",
          "type": "uint256"
        }
      ],
      "stateMutability": "nonpayable",
      "type": "constructor"
    },
    {
      "inputs": [
        {
          "internalType": "address",
          "name": "_address",
          "type": "address"
        }
      ],
      "name": "balanceOf",
      "outputs": [
        {
          "internalType": "uint256",
          "name": "result",
          "type": "uint256"
        }
      ],
      "stateMutability": "view",
      "type": "function"
    },
    {
      "inputs": [],
      "name": "getTotalSupply",
      "outputs": [
        {
          "internalType": "uint256",
          "name": "_totalSupply",
          "type": "uint256"
        }
      ],
      "stateMutability": "view",
      "type": "function"
    },
    {
      "inputs": [],
      "name": "name",
      "outputs": [
        {
          "internalType": "string",
          "name": "",
          "type": "string"
        }
      ],
      "stateMutability": "view",
      "type": "function"
    },
    {
      "inputs": [
        {
          "internalType": "uint256",
          "name": "_amount",
          "type": "uint256"
        },
        {
          "internalType": "address",
          "name": "_to",
          "type": "address"
        }
      ],
      "name": "transfer",
      "outputs": [],
      "stateMutability": "nonpayable",
      "type": "function"
    }
  ],
  "bytecode": "0x608060405234801561001057600080fd5b506040516107af3803806107af8339818101604052810190610032919061010d565b336000806101000a81548173ffffffffffffffffffffffffffffffffffffffff021916908373ffffffffffffffffffffffffffffffffffffffff16021790555080600181905550600154600260008060009054906101000a900473ffffffffffffffffffffffffffffffffffffffff1673ffffffffffffffffffffffffffffffffffffffff1673ffffffffffffffffffffffffffffffffffffffff16815260200190815260200160002060008282546100eb9190610136565b92505081905550506101dc565b600081519050610107816101c5565b92915050565b60006020828403121561011f57600080fd5b600061012d848285016100f8565b91505092915050565b60006101418261018c565b915061014c8361018c565b9250827fffffffffffffffffffffffffffffffffffffffffffffffffffffffffffffffff0382111561018157610180610196565b5b828201905092915050565b6000819050919050565b7f4e487b7100000000000000000000000000000000000000000000000000000000600052601160045260246000fd5b6101ce8161018c565b81146101d957600080fd5b50565b6105c4806101eb6000396000f3fe608060405234801561001057600080fd5b506004361061004c5760003560e01c806306fdde031461005157806370a082311461006f578063b7760c8f1461009f578063c4e41b22146100bb575b600080fd5b6100596100d9565b60405161006691906103ae565b60405180910390f35b610089600480360381019061008491906102c1565b610112565b60405161009691906103f0565b60405180910390f35b6100b960048036038101906100b491906102ea565b61015b565b005b6100c361028d565b6040516100d091906103f0565b60405180910390f35b6040518060400160405280600781526020017f4d79546f6b656e0000000000000000000000000000000000000000000000000081525081565b6000600260008373ffffffffffffffffffffffffffffffffffffffff1673ffffffffffffffffffffffffffffffffffffffff168152602001908152602001600020549050919050565b81600260003373ffffffffffffffffffffffffffffffffffffffff1673ffffffffffffffffffffffffffffffffffffffff1681526020019081526020016000205410156101dd576040517f08c379a00000000000000000000000000000000000000000000000000000000081526004016101d4906103d0565b60405180910390fd5b81600260003373ffffffffffffffffffffffffffffffffffffffff1673ffffffffffffffffffffffffffffffffffffffff168152602001908152602001600020600082825461022c919061047d565b9250508190555081600260008373ffffffffffffffffffffffffffffffffffffffff1673ffffffffffffffffffffffffffffffffffffffff16815260200190815260200160002060008282546102829190610427565b925050819055505050565b6000600154905090565b6000813590506102a681610560565b92915050565b6000813590506102bb81610577565b92915050565b6000602082840312156102d357600080fd5b60006102e184828501610297565b91505092915050565b600080604083850312156102fd57600080fd5b600061030b858286016102ac565b925050602061031c85828601610297565b9150509250929050565b60006103318261040b565b61033b8185610416565b935061034b8185602086016104ed565b6103548161054f565b840191505092915050565b600061036c601083610416565b91507f4e6f7420656e6f7567682066756e6473000000000000000000000000000000006000830152602082019050919050565b6103a8816104e3565b82525050565b600060208201905081810360008301526103c88184610326565b905092915050565b600060208201905081810360008301526103e98161035f565b9050919050565b6000602082019050610405600083018461039f565b92915050565b600081519050919050565b600082825260208201905092915050565b6000610432826104e3565b915061043d836104e3565b9250827fffffffffffffffffffffffffffffffffffffffffffffffffffffffffffffffff0382111561047257610471610520565b5b828201905092915050565b6000610488826104e3565b9150610493836104e3565b9250828210156104a6576104a5610520565b5b828203905092915050565b60006104bc826104c3565b9050919050565b600073ffffffffffffffffffffffffffffffffffffffff82169050919050565b6000819050919050565b60005b8381101561050b5780820151818401526020810190506104f0565b8381111561051a576000848401525b50505050565b7f4e487b7100000000000000000000000000000000000000000000000000000000600052601160045260246000fd5b6000601f19601f8301169050919050565b610569816104b1565b811461057457600080fd5b50565b610580816104e3565b811461058b57600080fd5b5056fea2646970667358221220d551968b3f524efb0cb7eb4ba5660bed14d1dd196461b38935d10ee5dc98f8f264736f6c63430008000033",
  "linkReferences": {},
  "deployedLinkReferences": {}
}