{
  "_format": "hh-sol-artifact-1",
  "contractName": "Token",
  "sourceName": "Contracts/Token.sol",
  "abi": [
    {
      "inputs": [],
      "name": "deposit",
      "outputs": [],
      "stateMutability": "payable",
      "type": "function"
    },
    {
      "inputs": [],
      "name": "getAddress",
      "outputs": [
        {
          "internalType": "address",
          "name": "",
          "type": "address"
        }
      ],
      "stateMutability": "view",
      "type": "function"
    },
    {
      "inputs": [],
      "name": "getBalance",
      "outputs": [
        {
          "internalType": "uint256",
          "name": "",
          "type": "uint256"
        }
      ],
      "stateMutability": "view",
      "type": "function"
    },
    {
      "inputs": [
        {
          "internalType": "address payable[]",
          "name": "_addresses",
          "type": "address[]"
        }
      ],
      "name": "sendEth",
      "outputs": [],
      "stateMutability": "payable",
      "type": "function"
    },
    {
      "inputs": [
        {
          "internalType": "address payable",
          "name": "_to",
          "type": "address"
        },
        {
          "internalType": "uint256",
          "name": "_amount",
          "type": "uint256"
        }
      ],
      "name": "withdraw",
      "outputs": [],
      "stateMutability": "nonpayable",
      "type": "function"
    }
  ],
  "bytecode": "0x608060405234801561001057600080fd5b506105ae806100206000396000f3fe60806040526004361061004a5760003560e01c806312065fe01461004f57806338cc48311461007a5780633b2fe781146100a5578063d0e30db0146100c1578063f3fef3a3146100cb575b600080fd5b34801561005b57600080fd5b506100646100f4565b604051610071919061037d565b60405180910390f35b34801561008657600080fd5b5061008f6100fc565b60405161009c9190610362565b60405180910390f35b6100bf60048036038101906100ba9190610303565b610104565b005b6100c96101ba565b005b3480156100d757600080fd5b506100f260048036038101906100ed91906102c7565b6101bc565b005b600047905090565b600030905090565b60005b81518110156101b657818181518110610149577f4e487b7100000000000000000000000000000000000000000000000000000000600052603260045260246000fd5b602002602001015173ffffffffffffffffffffffffffffffffffffffff166108fc83513461017791906103f5565b9081150290604051600060405180830381858888f193505050501580156101a2573d6000803e3d6000fd5b5080806101ae90610474565b915050610107565b5050565b565b8173ffffffffffffffffffffffffffffffffffffffff166108fc829081150290604051600060405180830381858888f19350505050158015610202573d6000803e3d6000fd5b505050565b600061021a610215846103c9565b610398565b9050808382526020820190508285602086028201111561023957600080fd5b60005b85811015610269578161024f8882610273565b84526020840193506020830192505060018101905061023c565b5050509392505050565b6000813590506102828161054a565b92915050565b600082601f83011261029957600080fd5b81356102a9848260208601610207565b91505092915050565b6000813590506102c181610561565b92915050565b600080604083850312156102da57600080fd5b60006102e885828601610273565b92505060206102f9858286016102b2565b9150509250929050565b60006020828403121561031557600080fd5b600082013567ffffffffffffffff81111561032f57600080fd5b61033b84828501610288565b91505092915050565b61034d81610426565b82525050565b61035c8161046a565b82525050565b60006020820190506103776000830184610344565b92915050565b60006020820190506103926000830184610353565b92915050565b6000604051905081810181811067ffffffffffffffff821117156103bf576103be61051b565b5b8060405250919050565b600067ffffffffffffffff8211156103e4576103e361051b565b5b602082029050602081019050919050565b60006104008261046a565b915061040b8361046a565b92508261041b5761041a6104ec565b5b828204905092915050565b60006104318261044a565b9050919050565b60006104438261044a565b9050919050565b600073ffffffffffffffffffffffffffffffffffffffff82169050919050565b6000819050919050565b600061047f8261046a565b91507fffffffffffffffffffffffffffffffffffffffffffffffffffffffffffffffff8214156104b2576104b16104bd565b5b600182019050919050565b7f4e487b7100000000000000000000000000000000000000000000000000000000600052601160045260246000fd5b7f4e487b7100000000000000000000000000000000000000000000000000000000600052601260045260246000fd5b7f4e487b7100000000000000000000000000000000000000000000000000000000600052604160045260246000fd5b61055381610438565b811461055e57600080fd5b50565b61056a8161046a565b811461057557600080fd5b5056fea2646970667358221220cbad19eacbfd9842b3cdcd2b7e5a84ab2402bd0d00a96c90d8e41599778d999264736f6c63430008000033",
  "linkReferences": {},
  "deployedLinkReferences": {}
}